:100000000C942A000C94D9010C9447000C944700DE
:100010000C9447000C9447000C9447000C94470044
:100020000C9447000C9447000C9447000C94470034
:100030000C9447000C9447000C9447000C94470024
:100040000C9447000C9447000C9447000C94470014
:100050000C94470011241FBECFE5D8E0DEBFCDBF12
:1000600010E0A0E6B0E0EAE5F2E102C005900D92F2
:10007000AE36B107D9F710E0AEE6B0E001C01D9290
:10008000A938B107E1F70E94BA080C942B090C9427
:10009000000093988B9A969A8E980895939A8FE180
:1000A0008A95F1F793981DBC1CBC869BFECF8EB53C
:1000B00082608EBD8699FECF8EB58D7F8EBD6CB56C
:1000C0007DB580E090E00E94AA0626E636E646EA84
:1000D0005FE30E94A40420E030E048E652E40E947E
:1000E00089050E94BF02CB01089598E0C79880FF60
:1000F00002C0C69A01C0C69824E12A95F1F700C053
:10010000C79A2DE32A95F1F700C08695915071F7B3
:10011000089549E081E090E020E030E0C7985AE09F
:100120005A95F1F7000056B36AE06A95F1F70000BE
:1001300056FF02C0282B392BC79A54E15A95F1F784
:1001400000C0880F991F415049F7C9010895BF9A0F
:10015000BE9AC798C69863E00E941F0184E18A9501
:10016000F1F700C08CE00E9475008AE00E947500E3
:1001700063E080E00E941F018FEF93EB0197F1F79E
:1001800000C000000895BF9ABE9AC798C69863E061
:100190000E941F0184E18A95F1F700C08EEE0E9453
:1001A000750084E18A95F1F700C063E080E00C946B
:1001B0001F011F93CF93DF931F92CDB7DEB7BF9A76
:1001C000BE9AC798C69863E00E941F0184E18A9591
:1001D000F1F700C08AEA0E947500BE98C69AE4E171
:1001E000EA95F1F700C00E948900182F63E080E0D3
:1001F00099830E941F01EFEFF5E03197F1F700C0FE
:100200000000812F99810F90DF91CF911F91089568
:1002100080E487B983E086B9379A369A3699FECF5B
:1002200084B195B1089597B18F71907E892B87B96C
:10023000369A3699FECF24B135B1C90108959FEFA2
:1002400094BB60FF02C0949A01C09498669560FFC9
:1002500002C0959A01C0959861FF02C0979A01C0AB
:10026000979885BBC49884E18A95F1F700C0C49A39
:10027000089561E080E00E941F0162E080E00E943A
:100280001F0163E080E00E941F0164E080E00C94A5
:100290001F018C9A8D9A8F9ABC9AC49A61E080E073
:1002A0000E941F0162E080E00E941F0163E080E085
:1002B0000E941F0164E080E00C941F01FC0103C058
:1002C0005D9BFECF8CB981918111FACF5D9BFECFF2
:1002D0008AE08CB908955D9BFECF8CB908958AB1F0
:1002E00088698AB980B5866880BD10BC87E289B903
:1002F00008959D99FECF08959D9BFECF0895AC98DB
:100300000E947C01AC9A0895AC980E947901AC9A45
:100310000C947C0125B330E4839FC00111242F731A
:10032000282B25BB0E94840185B38F7385BB08955C
:1003300063E080E00E941F0114BA8FEF85BBA6988E
:10034000AE9AA798AF9A8FEF9BE30197F1F700C0A1
:10035000000008958F3F31F484B38F6084BB85B370
:10036000807F05C084B3807F84BB85B38F6085BBED
:10037000089563E080E40E941F01A598AD9AA49AB5
:10038000AC9AA69AAE98A79AAF9880E00E94AA016C
:100390000C94840114BA8FEF85BB85B78E7F85BF1F
:1003A00085B7826085BF929A8A988BB780648BBF2D
:1003B00008951F920F920FB60F9211248F9381E030
:1003C00080936E008BB78F7B8BBF8F910F900FBE8A
:1003D0000F901F90189595B38F70907F892B85BBD8
:1003E0000C948401CF930E947901C3B30E947F01D2
:1003F0008C2F8F70CF910895CF93C82F82958F70D7
:100400000E94EB018C2FCF910C94EB01CF930E94B3
:10041000F201C82FC295C07F0E94F2018C2BCF91B0
:1004200008950F931F93CF93DF93182F0E94FC0121
:10043000CCE7D0E00C2F03C089910E94FC018C2FE7
:10044000801B8117C8F3DF91CF911F910F91089501
:10045000FF920F931F93CF93DF938C010E940602AC
:10046000F8018083CFE6D0E0FC2E03C00E94060294
:1004700089939C2F9F19F80180819817B8F3DF9119
:10048000CF911F910F91FF90089580916E00089574
:10049000CF93C82F0E94B90181E00E948A018FEF9B
:1004A0000E94AA018C2F0E941102CF910C949801F6
:1004B000CF93DF931F92CDB7DEB70E94450288230A
:1004C000C9F00E94B90182E00E948A0180E00E9486
:1004D000AA011982CE0101960E9428020E94980169
:1004E00010926E008BB780648BBF0E947E0289835E
:1004F0000E9448020F90DF91CF91089580916F0084
:10050000813039F46DE770E080E790E00E9490025E
:1005100001C080E090916F0090937C008F5F089500
:100520000F931F93CF93DF938C01EB01FC0180812C
:10053000833079F028F4813041F08230B1F407C083
:10054000843049F0853089F40AC081E005C082E03A
:1005500003C084E001C088E00E94D90002C00E946C
:100560004E009A83898382E001C080E0F801908187
:1005700098838F5FDF91CF911F910F910895CF9254
:10058000DF92EF92FF920F931F936B017C0120E0AB
:1005900030E040E05FE40E942C0687FD0EC020E0C2
:1005A00030E040E05FE4C701B6010E9474040E949D
:1005B0005B068B019C01305806C0C701B6010E9442
:1005C0005B068B019C01B801C9011F910F91FF903F
:1005D000EF90DF90CF900895A4E0B0E0E2EFF2E07A
:1005E0000C94DB087C016A01FC018081823008F4F4
:1005F0004AC1FB019081923008F442C1843079F401
:10060000943009F040C1F7019181FB018181981775
:1006100009F439C1A0E6EA2EA0E0FA2E34C19430E4
:1006200009F42EC1923091F4823009F02CC188E097
:10063000F701DA0101900D928A95E1F7FB018181C2
:10064000F70191818923FA0181831CC1823009F469
:1006500017C1F70182819381FB01A281B381F70168
:100660000481158126813781FB0184809580A680D5
:10067000B780FC01EA1BFB0BAF01F7FF04C0442766
:1006800055274E1B5F0B403251050CF074C01E16EF
:100690001F06B4F524013501042E04C07694679436
:1006A000579447940A94D2F749825A826B827C828B
:1006B000412C512C3201439404C0440C551C661C3F
:1006C000771C4A95D2F741E0441A51086108710835
:1006D000482059206A207B20812C912C540183943E
:1006E00045284628472819F4812C912C540149802B
:1006F0005A806B807C8084289528A628B72846C01D
:10070000EF2B09F443C0840F951F28013901042EF3
:1007100004C076946794579447940A94D2F7498218
:100720005A826B827C82412C512C3201439404C04A
:10073000440C551C661C771C4A95D2F741E0441ABC
:10074000510861087108402251226222732201E09F
:1007500010E020E030E045284628472819F400E062
:1007600010E0980149805A806B807C80042915290B
:10077000262937290BC0A817B90724F4812C912CFE
:10078000540104C0CD0100E010E09801F70141815F
:10079000FB015181451709F446C0442349F0240167
:1007A0003501401A510A620A730A9301820104C09A
:1007B000081919092A093B0937FD05C0F6011182FC
:1007C000938382830CC041E0F6014183938382834B
:1007D00030952095109501951F4F2F4F3F4F048363
:1007E0001583268337830EC0880F991FAA1FBB1F4E
:1007F000F60184839583A683B783828193810197D1
:1008000093838283F60184819581A681B781AC01AF
:10081000BD0141505109610971094F3F5F4F6F4F51
:100820007F4310F30CC0F601418393838283080D4C
:10083000191D2A1D3B1D048315832683378383E0FE
:10084000F6018083448155816681778177FF1AC0E4
:10085000DB01CA0181709927AA27BB277695679586
:1008600057954795842B952BA62BB72B848395837F
:10087000A683B7838281938101969383828302C08A
:100880007B0101C07601C7012496E0E10C94F708D2
:10089000A0E2B0E0EEE4F4E00C94E9086D8F7E8F06
:1008A0008F8F98A3298F3A8F4B8F5C8FBE016F5E1D
:1008B0007F4FCE014D960E94EA07BE01675F7F4FD2
:1008C000CE0149960E94EA07AE014F5F5F4FBE011D
:1008D000675F7F4FCE0141960E94EC020E94200785
:1008E000A096E2E00C940509A0E2B0E0EAE7F4E0AB
:1008F0000C94E9086D8F7E8F8F8F98A3298F3A8F84
:100900004B8F5C8FBE016F5E7F4FCE014D960E9474
:10091000EA07BE01675F7F4FCE0149960E94EA0752
:100920008A8591E089278A87AE014F5F5F4FBE01BC
:10093000675F7F4FCE0141960E94EC020E94200724
:10094000A096E2E00C940509A0E2B0E0EAEAF4E047
:100950000C94DB086D8F7E8F8F8F98A3298F3A8F31
:100960004B8F5C8FBE016F5E7F4FCE014D960E9414
:10097000EA07BE01675F7F4FCE0149960E94EA07F2
:100980009989923008F412C08985823008F41AC01F
:10099000943021F4823009F4B4C008C0843021F4CA
:1009A000923009F4AEC00EC0923051F481E02A8931
:1009B0009A85291301C080E08A8BCE014196A3C09D
:1009C000823051F481E02A899A85291301C080E0A0
:1009D0008A87CE01099697C08D889E88AF88B88C8B
:1009E0000D851E852F853889E0E2F0E080E090E0FB
:1009F000DC01C12CD12C760140E050E0BA0180FE30
:100A000018C0400F511F621F731F8C0D9D1DAE1D1E
:100A1000BF1D412C512C32014394401751076207EE
:100A2000730718F0412C512C3201840D951DA61D21
:100A3000B71DCC0CDD1CEE1CFF1C37FF02C06894F8
:100A4000C0F8000F111F221F331FB694A79497946C
:100A500087943197A1F62B893C89EB85FC852E0F75
:100A60003F1F2E5F3F4F3C832B8321E0EA893A856D
:100A7000E31301C020E02A83EB81FC810CC080FFDE
:100A800005C076956795579547957068B695A79573
:100A9000979587953196B7FDF2CF9F010CC0880FCF
:100AA000991FAA1FBB1F77FD8160440F551F661F4A
:100AB000771F215031090097A105E0E4BE0778F3C4
:100AC0002B833C838C019D010F771127222733272D
:100AD000003411052105310559F487FD09C0452B66
:100AE000462B472B29F0805C9F4FAF4FBF4F80783C
:100AF0008D839E83AF83B88783E08983CE0101967F
:100B000002C080E690E00E942007A096E0E10C94ED
:100B1000F708A8E1B0E0EFE8F5E00C94E3086D8B8E
:100B20007E8B8F8B988F298B3A8B4B8B5C8BBE0186
:100B3000675F7F4FCE0145960E94EA07BE016F5F57
:100B40007F4FCE0141960E94EA079985923008F4C2
:100B500075C08981823008F474C02A853A812327C0
:100B60002A87943011F0923019F4981367C06CC042
:100B7000843039F41D861E861F86188A1C861B86C3
:100B800004C0823029F484E08987CE0109965EC0D2
:100B90008B859C852B813C81821B930B9C878B874B
:100BA0004D855E856F857889CD80DE80EF80F88405
:100BB0004C155D056E057F0538F4440F551F661F03
:100BC000771F01979C878B87EFE1F0E000E010E052
:100BD00020E030E480E090E0DC014C155D056E051E
:100BE0007F0540F0802B912BA22BB32B4C195D0974
:100BF0006E097F093695279517950795440F551F60
:100C0000661F771F319749F78C019D010F771127D8
:100C100022273327003411052105310559F487FDBA
:100C200009C0452B462B472B29F0805C9F4FAF4FC7
:100C3000BF4F80788D879E87AF87B88BCE0109968E
:100C400005C0CE01019602C080E690E00E94200718
:100C50006896E8E00C94FF08A8E1B0E0E2E3F6E073
:100C60000C94E9086D8B7E8B8F8B988F298B3A8B38
:100C70004B8B5C8BBE01675F7F4FCE0145960E9418
:100C8000EA07BE016F5F7F4FCE0141960E94EA07DF
:100C90008985823058F08981823040F0BE016F5FD3
:100CA0007F4FCE0109960E94590801C08FEF6896C8
:100CB000E2E00C940509ACE0B0E0E1E6F6E00C946B
:100CC000E70869877A878B879C87BE016F5F7F4FB4
:100CD000CE0109960E94EA078981823091F1823023
:100CE00080F1843041F48A81882331F100E010E002
:100CF00020E030E829C02B813C8137FD22C02F3114
:100D000031058CF78EE190E0821B930B0D811E81E3
:100D10002F81388504C036952795179507958A95B4
:100D2000D2F78A81882381F030952095109501951E
:100D30001F4F2F4F3F4F08C00FEF1FEF2FEF3FE721
:100D400003C000E010E09801B801C9012C96E4E06E
:100D50000C940309A8E0B0E0E0EBF6E00C94E308A3
:100D60008B019C011A82611571058105910519F4A9
:100D700082E089835DC083E089834EE150E05C833B
:100D80004B83C901B8010E941009019797FF39C030
:100D9000EE27FF27E81BF90B41E050E060E070E030
:100DA0000E2E04C0440F551F661F771F0A94D2F7FA
:100DB0004150510961097109402351236223732372
:100DC000C12CD12C7601C394452B462B472B19F40B
:100DD000C12CD12C760104C036952795179507951F
:100DE000EA95D2F70C291D292E293F290D831E8350
:100DF0002F8338872EE130E0281B390B3C832B836F
:100E000017C0009729F40D831E832F83388710C0E5
:100E1000082E04C0000F111F221F331F0A94D2F79F
:100E20000D831E832F833887481B590B5C834B83AC
:100E3000CE0101960E9420072896E8E00C94FF0856
:100E40000F931F93CF93DF93DC0114964D915D9127
:100E50006D917C9117971196EC9111978C9182303E
:100E600020F460618FEF90E0A6C0843009F49EC04A
:100E7000823009F495C0411551056105710509F4E9
:100E800092C012962D913C91139722388FEF38071C
:100E90000CF058C0C2E8DFEFC21BD30BCA31D1053A
:100EA0006CF58A019B010C2E04C036952795179589
:100EB00007950A94D2F781E090E0A0E0B0E00C2E14
:100EC00004C0880F991FAA1FBB1F0A94D2F701976D
:100ED000A109B10984239523A623B72341E050E05B
:100EE00060E070E0892B8A2B8B2B19F440E050E0F6
:100EF000BA01402B512B622B732B03C040E050E012
:100F0000BA01DB01CA018F779927AA27BB27803452
:100F10009105A105B10539F447FF09C0405C5F4F59
:100F20006F4F7F4F04C0415C5F4F6F4F7F4F81E039
:100F300090E041155105610520E4720748F580E015
:100F400090E026C0203831058CF5DB01CA018F778F
:100F50009927AA27BB2780349105A105B10539F44B
:100F600047FF09C0405C5F4F6F4F7F4F04C0415C3B
:100F70005F4F6F4F7F4F77FD04C0C90181589F4F6E
:100F800007C07695679557954795C90180589F4F3B
:100F900097E076956795579547959A95D1F70BC049
:100FA00080E090E005C080E090E005C08FEF90E029
:100FB00040E050E0BA01982F9695E0FB97F9362F64
:100FC00080FB37F9642F752F832FDF91CF911F910D
:100FD0000F910895CF92DF92EF92DC01FB01CC904C
:100FE0001196DC90119712968C9112973FE7E32EA1
:100FF000E8226E2DA60170E0982F991F9927991F5E
:1010000013962C91822F880F892B90E027FB2227A3
:1010100020F92183009729F54115510561057105D6
:1010200011F482E027C082E89FEF9383828327E058
:10103000440F551F661F771F2A95D1F783E08083E1
:1010400009C0440F551F661F771F82819381019746
:101050009383828341155105610580E4780788F305
:1010600020C08F3F910579F4411551056105710547
:1010700019F484E0808319C0E4FE03C081E080831A
:1010800010C010820EC08F5791099383828383E032
:10109000808387E0440F551F661F771F8A95D1F71D
:1010A00070644483558366837783EF90DF90CF909D
:1010B0000895CF93FC01DB019081923008F452C077
:1010C0008C91823008F44EC0943071F4843039F43D
:1010D00011962C9130E08181281B310948C0818113
:1010E000882309F43FC03BC0843029F411968C91C9
:1010F000811138C034C0923019F48230B9F735C04C
:10110000823069F3C18111968C911197C8131DC06B
:101110002281338112968D919C91139782179307A8
:101120000CF413C0281739070CF417C044815581FB
:101130006681778114968D919D910D90BC91A02D23
:1011400084179507A607B70718F4C11108C00AC08D
:10115000481759076A077B0740F4C11103C02FEFF6
:101160003FEF05C021E030E002C020E030E0C901DF
:10117000CF9108950E9449010E946F010E94CA0107
:1011800081E00E94C30082E00E94C3000E944900E7
:1011900078942FEF8FE795E2215080409040E1F75F
:1011A00000C0000088E690E00E945E010E945802A4
:1011B000FDCF2F923F924F925F926F927F928F92CC
:1011C0009F92AF92BF92CF92DF92EF92FF920F93D6
:1011D0001F93CF93DF93CDB7DEB7CA1BDB0B0FB6E0
:1011E000F894DEBF0FBECDBF09942A88398848889D
:1011F0005F846E847D848C849B84AA84B984C88433
:10120000DF80EE80FD800C811B81AA81B981CE0F29
:10121000D11D0FB6F894DEBF0FBECDBFED0108950E
:101220000E94190984FF0895CB010E941909805F6B
:101230000895AA27992329F4A85F982B11F480E137
:101240000895903118F4AD5F9295A395990FE8F742
:0A1250008A2F99270895F894FFCF24
:0E125A00000000000000000072656164790071
:00000001FF
