:100000000C942A000C9447000C94A9000C9447000F
:100010000C9447000C94F0040C9447000C94470097
:100020000C9447000C9455050C9447000C94470021
:100030000C9447000C9404060C9447000C94470061
:100040000C9447000C9447000C9447000C94470014
:100050000C94470011241FBECFE5D8E0DEBFCDBF12
:1000600011E0A0E6B0E0E4EDFEE002C005900D92E4
:10007000A632B107D9F711E0A6E2B1E001C01D92A6
:10008000AF36B107E1F70E9418070C9468070C948B
:1000900000009D99FECF08959D9BFECF0895AC98DA
:1000A0000E944C00AC9A0895AC980E944900AC9A0A
:1000B0000C944C0025B330E4839FC00111242F73AE
:1000C000282B25BB0E94540085B38F7385BB0895F0
:1000D00063E080E00E940D0214BA8FEF85BBA69802
:1000E000AE9AA798AF9A8FEF9BE30197F1F700C004
:1000F000000008958F3F31F484B38F6084BB85B3D3
:10010000807F05C084B3807F84BB85B38F6085BB4F
:10011000089563E080E40E940D02A598AD9AA49A28
:10012000AC9AA69AAE98A79AAF9880E00E947A00FF
:100130000C94540014BA8FEF85BB85B78B7F85BFB5
:1001400085B7886085BF939A8B988BB780688BBF83
:1001500008951F920F920FB60F9211248F9381E092
:10016000809326018BB78F778BBF8F910F900FBE37
:100170000F901F90189595B38F70907F892B85BB3A
:100180000C945400CF930E944900C3B30E944F00C7
:100190008C2F8F70CF910895CF93C82F82958F7039
:1001A0000E94BB008C2FCF910C94BB00CF930E9478
:1001B000C200C82FC295C07F0E94C2008C2BCF9175
:1001C00008950F931F93CF93DF93182F0E94CC00B5
:1001D000C2E4D1E00C2F03C089910E94CC008C2F87
:1001E000801B8117C8F3DF91CF911F910F91089564
:1001F000FF920F931F93CF93DF938C010E94D60041
:10020000F8018083C5E3D1E0FC2E03C00E94D60034
:1002100089939C2F9F19F80180819817B8F3DF917B
:10022000CF911F910F91FF9008958091260108951D
:1002300080913501823061F018F4813029F406C0D4
:10024000853089F0863041F080E00EC081E001C049
:1002500082E00E94CD0103C080E00E948F01909354
:1002600044018093430182E09091350190934201D3
:100270008F5F0895CF93C82F0E94890081E00E946C
:100280005A008FEF0E947A008C2F0E94E100CF91DC
:100290000C946800CF93DF931F92CDB7DEB70E9416
:1002A00015018823C9F00E94890082E00E945A004B
:1002B00080E00E947A001982CE0101960E94F80027
:1002C0000E946800109226018BB780688BBF0E9445
:1002D000180189830E943A010F90DF91CF91089510
:1002E00098E0C79880FF02C0C69A01C0C69824E172
:1002F0002A95F1F700C0C79A2DE32A95F1F700C0BF
:100300008695915071F7089580E487B983E086B9A6
:10031000379A369A3699FECF84B195B1089597B140
:100320008F71907E892B87B9369A3699FECF24B18A
:1003300035B1C9010895BF9ABE9AC798C69863E0BF
:100340000E940D0284E18A95F1F700C08CE00E94C2
:1003500070018AE00E94700163E080E00E940D025B
:100360008FEF93EB0197F1F700C000000895BF9A5B
:10037000BE9AC798C69863E00E940D0284E18A95F0
:10038000F1F700C08EEE0E94700184E18A95F1F7CA
:1003900000C063E080E00C940D02CF93DF93BF9A1E
:1003A000BE9AC798C69863E00E940D0234E13A9560
:1003B000F1F700C08AEA0E947001BE98C69A44E133
:1003C0004A95F1F700C029E081E090E0C0E0D0E07C
:1003D000C7983AE03A95F1F7000036B34AE04A95FB
:1003E000F1F7000036FF02C0C82BD92BC79A34E1C1
:1003F0003A95F1F700C0880F991F215049F763E043
:1004000080E00E940D028FEF95E00197F1F700C0A8
:100410000000CE01DF91CF9108959FEF94BB60FF64
:1004200002C0949A01C09498669560FF02C0959AA4
:1004300001C0959861FF02C0979A01C0979885BB4B
:10044000C49884E18A95F1F700C0C49A08951F9377
:10045000CF93DF931F92CDB7DEB7182F862F60E0C2
:1004600079830E940D0261E07981872F0E940D023D
:1004700062E0812F0E940D0215BA14BAC29882E080
:100480008A95F1F7000013B3C29A60E080E00E9401
:100490000D0261E080E00E940D0262E080E00E94B7
:1004A0000D02812F0F90DF91CF911F9108951F931F
:1004B000CF93DF9300D0CDB7DEB7162F9FEF94BB5D
:1004C00060E02A8349830E940D0261E0812F0E942F
:1004D0000D0262E04981842F0E940D02C3982A8197
:1004E00025BBC39A60E080E00E940D0261E080E0DD
:1004F0000E940D0262E080E00F900F90DF91CF919B
:100500001F910C940D02FF920F931F93CF93DF93D3
:100510001F92CDB7DEB7F82E062F142F2AEA40E03F
:1005200065E085E579830E94570225E540E062E0B9
:100530008AEA0E94570220EA40E065E085E50E94D1
:100540005702212F4F2D7981672F802F0F90DF9138
:10055000CF911F910F91FF900C94570261E080E0C2
:100560000E940D0262E080E00E940D0263E080E0E4
:100570000E940D0264E080E00C940D028C9A8D9A2A
:100580008F9ABC9AC49A61E080E00E940D0262E0FA
:1005900080E00E940D0263E080E00E940D0264E0B2
:1005A00080E00C940D022AEA40E065E085E50E94B7
:1005B000570225E540E062E08AEA0E94570220E8FF
:1005C00040E065E085E50E9457022AEA40E065E0E8
:1005D00085E50E94570225E540E062E08AEA0E9434
:1005E000570220E140E065E085E50E94570214BA19
:1005F00083B38F3FE9F74FE060E070E080E00C9458
:100600008302CF93C82F2AEA40E065E085E50E9487
:10061000570225E540E062E08AEA0E94570220E89E
:1006200040E065E085E50E9457022AEA40E065E087
:1006300085E50E94570225E540E062E08AEA0E94D3
:10064000570220E34C2F60E080E00E94570214BA6A
:1006500083B38F3FE9F7CF910895FF920F931F93D4
:10066000CF93DF93082FF92E162F662309F460C06D
:10067000209127013091280120953095E62FF0E058
:1006800032962E173F0738F540E060E070E0809129
:1006900029010E9483022091290130E0C9010196BD
:1006A000877099278093290160E070E00E942702FB
:1006B0008F3F21F0809129010E9401034FE060E00B
:1006C00070E0809129010E94830221E030E03093A4
:1006D0002801209327016091270170912801412F63
:1006E000809129010E9483022091270130912801E5
:1006F0002F5F3F4F3093280120932701C02FDF2D1C
:1007000013C06091270170912801499180912901BE
:100710000E94830220912701309128012F5F3F4FD3
:1007200030932801209327018C2F801B811748F3D9
:10073000DF91CF911F910F91FF900895EF92FF925B
:100740000F931F93CF93DF93F82EC1E0D0E013C037
:10075000BE018F2D0E942702E82E8E010F5F1F4FD2
:10076000B8018F2D0E9427020E94F405802F8C1B58
:10077000E816A0F7E801BE018F2D0E9427028F3FE7
:1007800039F7DF91CF911F910F91FF90EF9008956E
:100790001F93CF93DF93BB9ABA9AC29AC39A10E081
:1007A00060E070E0812F0E9427028F3029F01F5FE8
:1007B0001830B1F7C0E01EC08FE690E00E94E70558
:1007C00010932901C1E0D0E00AC0BE01812F0E9430
:1007D0002702282F30E02F5F3F4FC20FD31FBE01EB
:1007E000812F0E9427028F3F81F7D0932801C09369
:1007F00027012BC060E070E08C2F0E9427028F3F02
:1008000021F0CF5FC830B1F70CC0C09329018CE74D
:1008100090E00E94E7054FE060E070E080912901E0
:100820000CC088E890E00E94E7050E94D302109275
:1008300029014FE060E070E080E00E94830281E0E7
:1008400090E090932801809327018EE990E00E9428
:10085000E705809129010E94F405809128010E94FA
:10086000F40580912701DF91CF911F910C94F4053D
:100870001092300110923101109232011092330126
:100880001092340110922C0110922D0110922E0121
:1008900010922B0110922A0108950E9438041092A0
:1008A0005701109258011092590110925A0110925A
:1008B0005B0110925C0185B5877F85BD85B58F7B17
:1008C00085BD14BC85B5846085BD85B5826085BD58
:1008D00085B58E7F85BD89B7806489BF85B7846003
:1008E00085BF8B988BB780688BBF80E492EA9DBDF3
:1008F0008CBD89B7846089BF8EB584608EBD7894C5
:10090000089580912A0110922A01839968C08F303E
:1009100010F480E001C080E890912B01953108F43B
:1009200059C090912B019C3138F4909130019695EB
:10093000980F9093300104C090912B019C3131F4B9
:1009400090912C01980F90932C0144C090912B0111
:10095000933238F4909131019695980F909331012C
:1009600004C090912B01933231F490912D01980F96
:1009700090932D012FC090912B019A3238F49091D1
:1009800032019695980F909332011FC090912B01E0
:100990009D3208F41AC090912B01923338F4909153
:1009A00033019695980F909333010FC090912B01CE
:1009B0009A3338F4909134019695980F90933401BE
:1009C00004C090912B019A3329F490912E01980F35
:1009D00090932E0180912B018F5F80932B010895BE
:1009E0001F920F920FB60F9211242F933F934F93A4
:1009F0005F936F937F938F939F93AF93BF93EF9387
:100A0000FF9380912A018E35D1F580912B018B3394
:100A1000A1F580912C01811130C080912D018111AF
:100A20002CC080912E01811128C0809130018695C3
:100A30000E940D078093580180913101869586951B
:100A40000E940D0780935901809132018695869509
:100A50000E940D0780935A018091330186958695F7
:100A600086950E940D0780935B01809134010E945E
:100A70000D0780935C01109257010E943804809109
:100A80002A018F5F80932A01FF91EF91BF91AF916F
:100A90009F918F917F916F915F914F913F912F9196
:100AA0000F900FBE0F901F9018951F920F920FB6C8
:100AB0000F9211242F933F935F936F937F938F93A4
:100AC0009F93AF93BF93EF93FF9380E492EA9DBD12
:100AD0008CBD809157018F5F8093570180915701A2
:100AE0008C3309F064C010925701809158018F5FD8
:100AF00080935801809158018C3309F058C01092AE
:100B00005801809159018F5F80935901809159015B
:100B1000883109F04CC01092590180915A018F5FC1
:100B200080935A01E0915A01F0E020915C0180919C
:100B30005B018230B1F430E02053384FC90160E9E5
:100B400071E00E943707892BC1F0C90164E670E0AB
:100B50000E943707892B49F123703327232B29F56E
:100B60000CC0843011F48EE109C08630E1F3893085
:100B7000D1F38B30C1F38FE101C08CE190E001969D
:100B8000E817F907A1F480915B018F5F80935B0107
:100B900080915B018D3059F481E080935B018091FD
:100BA0005C018F5F80935C0102C08DE1E7CFFF9114
:100BB000EF91BF91AF919F918F917F916F915F91D5
:100BC0003F912F910F900FBE0F901F901895FC0131
:100BD00003C05D9BFECF8CB981918111FACF5D9BE3
:100BE000FECF8AE08CB908955D9BFECF8CB9089545
:100BF0008AB188698AB980B5866880BD10BC87E2F1
:100C000089B91092640108951F920F920FB60F9246
:100C100011242F933F934F935F936F937F938F9301
:100C20009F93AF93BF93EF93FF93CF93DF93CDB792
:100C3000DEB72A97DEBFCDBF8CB18A3089F0E09154
:100C40006401F0E0EB59FE4F80838091640190E0F5
:100C500001966AE070E00E944B0780936401C4C073
:100C60008CEA90E00E94E705DE01119680E090E0BA
:100C7000FC01EB59FE4F20812D93108201968A30A2
:100C80009105B1F766EB70E0CE0101960E945F0717
:100C9000009719F480E00E949E036DEB70E0CE0196
:100CA00001960E945F07009719F481E00E949E035D
:100CB00064EC70E0CE0101960E945F07009719F482
:100CC00082E00E949E036BEC70E0CE0101960E94D0
:100CD0005F07009719F483E00E949E0362ED70E0C5
:100CE000CE0101960E945F07009719F484E00E94EC
:100CF0009E0369ED70E0CE0101960E945F070097A8
:100D000019F485E00E949E0360EE70E0CE0101962A
:100D10000E945F07009719F486E00E949E0367EE29
:100D200070E0CE0101960E945F07009719F487E0FA
:100D30000E949E036EEE70E0CE0101960E945F0756
:100D4000009719F480E00E94010365EF70E0CE0186
:100D500001960E945F07009719F481E00E94010349
:100D60006CEF70E0CE0101960E945F07009719F4C6
:100D700082E00E94010363E071E0CE0101960E94CF
:100D80005F07009719F483E00E9401036AE071E0B5
:100D9000CE0101960E945F07009719F484E00E943B
:100DA000010361E171E0CE0101960E945F070097A7
:100DB00019F485E00E94010368E171E0CE0101961B
:100DC0000E945F07009719F486E00E9401036FE11B
:100DD00071E0CE0101960E945F07009719F487E049
:100DE0000E940103109264012A960FB6F894DEBFA8
:100DF0000FBECDBFDF91CF91FF91EF91BF91AF912A
:100E00009F918F917F916F915F914F913F912F9122
:100E10000F900FBE0F901F901895282F22952F70BE
:100E2000922F990F990F920F990F8F70890F089534
:100E30000E94BE020E9484010E94F8050E949A004E
:100E400081E00E94B70182E00E94B701789489E6B0
:100E500090E00E94E7052FEF8FE795E22150804058
:100E60009040E1F700C000000E944A01FDCFAA1B9C
:100E7000BB1B51E107C0AA1FBB1FA617B70710F085
:100E8000A61BB70B881F991F5A95A9F780959095B7
:100E9000BC01CD01089597FB072E16F4009407D0EE
:100EA00077FD09D00E94370707FC05D03EF49095E6
:100EB00081959F4F0895709561957F4F0895FB012F
:100EC000DC018D91019080190110D9F3990B0895DF
:040ED000F894FFCFC4
:100ED40006080757014F015D017265616479006678
:100EE4006F756E642061637469766500666F756EF4
:100EF4006420656D70747900506572666F726D69F7
:100F04006E6720636869702065726173650043755C
:100F14007272656E7420507472733A00436F6D6D13
:100F2400616E642E2E007072696E74300070726986
:100F34006E7431007072696E7432007072696E740E
:100F440033007072696E7434007072696E743500A7
:100F54007072696E7436007072696E743700636CF7
:100F64006561723000636C6561723100636C656148
:100F7400723200636C6561723300636C6561723454
:100F840000636C6561723500636C65617236006381
:060F94006C65617237007C
:00000001FF
