:100000000C942A000C94A9000C9447000C9447000F
:100010000C9447000C9421050C9447000C94470065
:100020000C9447000C9486050C9447000C944700F0
:100030000C9447000C9435060C9447000C94470030
:100040000C9447000C9447000C9447000C94470014
:100050000C94470011241FBECFE5D8E0DEBFCDBF12
:1000600011E0A0E6B0E0E0EDFBE102C005900D92EA
:10007000AE32B107D9F711E0AEE2B1E001C01D9296
:10008000A737B107E1F70E94440D0C94E60D0C94DC
:1000900000009D99FECF08959D9BFECF0895AC98DA
:1000A0000E944C00AC9A0895AC980E944900AC9A0A
:1000B0000C944C0025B330E4839FC00111242F73AE
:1000C000282B25BB0E94540085B38F7385BB0895F0
:1000D00063E080E00E943D0214BA8FEF85BBA698D2
:1000E000AE9AA798AF9A8FEF9BE30197F1F700C004
:1000F000000008958F3F31F484B38F6084BB85B3D3
:10010000807F05C084B3807F84BB85B38F6085BB4F
:10011000089563E080E40E943D02A598AD9AA49AF8
:10012000AC9AA69AAE98A79AAF9880E00E947A00FF
:100130000C94540014BA8FEF85BB85B78E7F85BFB2
:1001400085B7826085BF929A8A988BB780648BBF8F
:1001500008951F920F920FB60F9211248F9381E092
:1001600080932E018BB78F7B8BBF8F910F900FBE2B
:100170000F901F90189595B38F70907F892B85BB3A
:100180000C945400CF930E944900C3B30E944F00C7
:100190008C2F8F70CF910895CF93C82F82958F7039
:1001A0000E94BB008C2FCF910C94BB00CF930E9478
:1001B000C200C82FC295C07F0E94C2008C2BCF9175
:1001C00008950F931F93CF93DF93182F0E94CC00B5
:1001D000CAE4D1E00C2F03C089910E94CC008C2F7F
:1001E000801B8117C8F3DF91CF911F910F91089564
:1001F000FF920F931F93CF93DF938C010E94D60041
:10020000F8018083CDE3D1E0FC2E03C00E94D6002C
:1002100089939C2F9F19F80180819817B8F3DF917B
:10022000CF911F910F91FF90089580912E01089515
:1002300080913D01823059F018F48130C1F405C03D
:10024000853049F0863099F409C081E001C082E030
:100250000E94FD0106C00E948D0103C080E00E9443
:10026000BF0190934C0180934B0182E001C080E07C
:1002700090913D0190934A018F5F0895CF93C82FCD
:100280000E94890081E00E945A008FEF0E947A004C
:100290008C2F0E94E100CF910C946800CF93DF93E4
:1002A0001F92CDB7DEB70E9415018823C9F00E94C6
:1002B000890082E00E945A0080E00E947A00198240
:1002C000CE0101960E94F8000E94680010922E0153
:1002D0008BB780648BBF0E94180189830E943E0106
:1002E0000F90DF91CF91089598E0C79880FF02C0EA
:1002F000C69A01C0C69824E12A95F1F700C0C79AB2
:100300002DE32A95F1F700C08695915071F7089575
:1003100093988B9A969A8E980895939A8FE18A95DE
:10032000F1F793981DBC1CBC869BFECF8EB58260F6
:100330008EBD8699FECF8EB58D7F8EBD6CB57DB599
:1003400080E090E00E94340B26E636E646EA5FE362
:100350000E942E0920E030E048E652E40E94130A91
:100360000E944907CB01089580E487B983E086B9EC
:10037000379A369A3699FECF84B195B1089597B1E0
:100380008F71907E892B87B9369A3699FECF24B12A
:1003900035B1C9010895BF9ABE9AC798C69863E05F
:1003A0000E943D0284E18A95F1F700C08CE00E9432
:1003B00074018AE00E94740163E080E00E943D02C3
:1003C0008FEF93EB0197F1F700C000000895BF9AFB
:1003D000BE9AC798C69863E00E943D0284E18A9560
:1003E000F1F700C08EEE0E94740184E18A95F1F766
:1003F00000C063E080E00C943D02CF93DF93BF9A8E
:10040000BE9AC798C69863E00E943D0234E13A95CF
:10041000F1F700C08AEA0E947401BE98C69A44E1CE
:100420004A95F1F700C029E081E090E0C0E0D0E01B
:10043000C7983AE03A95F1F7000036B34AE04A959A
:10044000F1F7000036FF02C0C82BD92BC79A34E160
:100450003A95F1F700C0880F991F215049F763E0E2
:1004600080E00E943D028FEF95E00197F1F700C018
:100470000000CE01DF91CF9108959FEF94BB60FF04
:1004800002C0949A01C09498669560FF02C0959A44
:1004900001C0959861FF02C0979A01C0979885BBEB
:1004A000C49884E18A95F1F700C0C49A08951F9317
:1004B000CF93DF931F92CDB7DEB7182F862F60E062
:1004C00079830E943D0261E07981872F0E943D027D
:1004D00062E0812F0E943D0215BA14BAC29882E0F0
:1004E0008A95F1F7000013B3C29A60E080E00E94A1
:1004F0003D0261E080E00E943D0262E080E00E94F7
:100500003D02812F0F90DF91CF911F9108951F938E
:10051000CF93DF9300D0CDB7DEB7162F9FEF94BBFC
:1005200060E02A8349830E943D0261E0812F0E949E
:100530003D0262E04981842F0E943D02C3982A81D6
:1005400025BBC39A60E080E00E943D0261E080E04C
:100550000E943D0262E080E00F900F90DF91CF910A
:100560001F910C943D02FF920F931F93CF93DF9343
:100570001F92CDB7DEB7F82E062F142F2AEA40E0DF
:1005800065E085E579830E94870225E540E062E029
:100590008AEA0E94870220EA40E065E085E50E9441
:1005A0008702212F4F2D7981672F802F0F90DF91A8
:1005B000CF911F910F91FF900C94870261E080E032
:1005C0000E943D0262E080E00E943D0263E080E024
:1005D0000E943D0264E080E00C943D028C9A8D9A6A
:1005E0008F9ABC9AC49A61E080E00E943D0262E06A
:1005F00080E00E943D0263E080E00E943D0264E0F2
:1006000080E00C943D022AEA40E065E085E50E9426
:10061000870225E540E062E08AEA0E94870220E83E
:1006200040E065E085E50E9487022AEA40E065E057
:1006300085E50E94870225E540E062E08AEA0E94A3
:10064000870220E140E065E085E50E94870214BA58
:1006500083B38F3FE9F74FE060E070E080E00C94F7
:10066000B302CF93C82F2AEA40E065E085E50E94F7
:10067000870225E540E062E08AEA0E94870220E8DE
:1006800040E065E085E50E9487022AEA40E065E0F7
:1006900085E50E94870225E540E062E08AEA0E9443
:1006A000870220E34C2F60E080E00E94870214BAAA
:1006B00083B38F3FE9F7CF910895FF920F931F9374
:1006C000CF93DF93082FF92E162F662309F461C00C
:1006D000E0912F01F0913001E095F095262F30E068
:1006E0002E5F3F4FE217F30738F540E060E070E01F
:1006F000809131010E94B30220913101822F90E05C
:100700000196877099278093310160E070E00E9424
:1007100057028F3F21F0809131010E9431034FE059
:1007200060E070E0809131010E94B30281E090E0CE
:100730009093300180932F0160912F0170913001CF
:10074000412F809131010E94B30220912F013091FD
:1007500030012F5F3F4F3093300120932F01C02F86
:10076000DF2D13C060912F0170913001499180916C
:1007700031010E94B30220912F01309130012F5F8F
:100780003F4F3093300120932F018C2F801B811716
:1007900048F3DF91CF911F910F91FF900895EF9251
:1007A000FF920F931F93CF93DF93F82EC1E0D0E019
:1007B00013C0BE018F2D0E945702E82E8E010F5FDD
:1007C0001F4FB8018F2D0E9457020E942506802FCF
:1007D0008C1BE816A0F7E801BE018F2D0E9457027E
:1007E0008F3F39F7DF91CF911F910F91FF90EF90DD
:1007F00008951F93CF93DF93BB9ABA9AC29AC39A74
:1008000010E060E070E0812F0E9457028F3029F0E5
:100810001F5F1830B1F7C0E01EC087E790E00E946C
:10082000180610933101C1E0D0E00AC0BE01812F4B
:100830000E945702282F30E02F5F3F4FC20FD31F77
:10084000BE01812F0E9457028F3F81F7D093300164
:10085000C0932F012BC060E070E08C2F0E945702E4
:100860008F3F21F0CF5FC830B1F70CC0C09331018A
:1008700084E890E00E9418064FE060E070E080910C
:1008800031010CC080E990E00E9418060E94030329
:10089000109231014FE060E070E080E00E94B3020E
:1008A00081E090E09093300180932F0186EA90E000
:1008B0000E941806809131010E9425068091300126
:1008C0000E94250680912F01DF91CF911F910C94FA
:1008D0002506109238011092390110923A011092B7
:1008E0003B0110923C01109234011092350110929C
:1008F0003601109233011092320108950E9469046A
:1009000010925F01109260011092610110926201D9
:10091000109263011092640185B5877F85BD85B50E
:100920008F7B85BD14BC85B5846085BD85B582602F
:1009300085BD85B58E7F85BD89B7806489BF85B744
:10094000846085BF8B988BB780688BBF80E492EA08
:100950009DBD8CBD89B7846089BF8EB584608EBD16
:10096000789408958091320110923201839968C081
:100970008F3010F480E001C080E890913301953110
:1009800008F459C0909133019C3138F490913801AA
:100990009695980F9093380104C0909133019C3143
:1009A00031F490913401980F9093340144C09091A8
:1009B0003301933238F4909139019695980F9093C2
:1009C000390104C090913301933231F49091350193
:1009D000980F909335012FC0909133019A3238F4DB
:1009E00090913A019695980F90933A011FC090917B
:1009F00033019D3208F41AC090913301923338F4D8
:100A000090913B019695980F90933B010FC0909168
:100A100033019A3338F490913C019695980F909356
:100A20003C0104C0909133019A3329F4909136012E
:100A3000980F90933601809133018F5F809333013B
:100A400008951F920F920FB60F9211242F933F9388
:100A50004F935F936F937F938F939F93AF93BF93C6
:100A6000EF93FF93809132018E35D1F58091330160
:100A70008B33A1F580913401811130C08091350113
:100A800081112CC080913601811128C080913801DC
:100A900086950E943E07809360018091390186957A
:100AA00086950E943E078093610180913A01869568
:100AB00086950E943E078093620180913B01869556
:100AC000869586950E943E078093630180913C0144
:100AD0000E943E078093640110925F010E946904A6
:100AE000809132018F5F80933201FF91EF91BF912E
:100AF000AF919F918F917F916F915F914F913F91B6
:100B00002F910F900FBE0F901F9018951F920F926C
:100B10000FB60F9211242F933F935F936F937F93A0
:100B20008F939F93AF93BF93EF93FF9380E492EAE9
:100B30009DBD8CBD80915F018F5F80935F0180912F
:100B40005F018C3309F064C010925F0180916001F5
:100B50008F5F80936001809160018C3309F058C0F1
:100B600010926001809161018F5F8093610180919B
:100B70006101883109F04CC01092610180916201DD
:100B80008F5F80936201E0916201F0E02091640147
:100B9000809163018230B1F430E02053384FC901B5
:100BA00060E971E00E94630D892BC1F0C90164E620
:100BB00070E00E94630D892B49F123703327232BAA
:100BC00029F50CC0843011F48EE109C08630E1F3C0
:100BD0008930D1F38B30C1F38FE101C08CE190E01B
:100BE0000196E817F907A1F4809163018F5F809364
:100BF0006301809163018D3059F481E0809363013A
:100C0000809164018F5F8093640102C08DE1E7CF22
:100C1000FF91EF91BF91AF919F918F917F916F91D4
:100C20005F913F912F910F900FBE0F901F901895DD
:100C3000FC0103C05D9BFECF8CB981918111FACF7D
:100C40005D9BFECF8AE08CB908955D9BFECF8CB989
:100C500008958AB188698AB980B5866880BD10BC5C
:100C600087E289B910926C0108951F920F920FB616
:100C70000F9211242F933F934F935F936F937F9322
:100C80008F939F93AF93BF93EF93FF93CF93DF9394
:100C9000CDB7DEB72A97DEBFCDBF8CB18A3089F0E1
:100CA000E0916C01F0E0E359FE4F808380916C018C
:100CB00090E001966AE070E00E94770D80936C01ED
:100CC000C4C084EB90E00E941806DE01119680E01B
:100CD00090E0FC01E359FE4F20812D931082019694
:100CE0008A309105B1F76EEB70E0CE0101960E945B
:100CF000DD0D009719F480E00E94CF0365EC70E0F1
:100D0000CE0101960E94DD0D009719F481E00E944A
:100D1000CF036CEC70E0CE0101960E94DD0D0097D0
:100D200019F482E00E94CF0363ED70E0CE010196DA
:100D30000E94DD0D009719F483E00E94CF036AED55
:100D400070E0CE0101960E94DD0D009719F484E059
:100D50000E94CF0361EE70E0CE0101960E94DD0D8E
:100D6000009719F485E00E94CF0368EE70E0CE0191
:100D700001960E94DD0D009719F486E00E94CF03D2
:100D80006FEE70E0CE0101960E94DD0D009719F420
:100D900087E00E94CF0366EF70E0CE0101960E94CB
:100DA000DD0D009719F480E00E9431036DEF70E0D3
:100DB000CE0101960E94DD0D009719F481E00E949A
:100DC000310364E071E0CE0101960E94DD0D0097D1
:100DD00019F482E00E9431036BE071E0CE010196CC
:100DE0000E94DD0D009719F483E00E94310362E157
:100DF00071E0CE0101960E94DD0D009719F484E0A8
:100E00000E94310369E171E0CE0101960E94DD0D7F
:100E1000009719F485E00E94310360E271E0CE0191
:100E200001960E94DD0D009719F486E00E943103BF
:100E300067E271E0CE0101960E94DD0D009719F482
:100E400087E00E94310310926C012A960FB6F89445
:100E5000DEBF0FBECDBFDF91CF91FF91EF91BF916C
:100E6000AF919F918F917F916F915F914F913F9142
:100E70002F910F900FBE0F901F901895282F22953D
:100E80002F70922F990F990F920F990F8F70890FD2
:100E90000895CF92DF92EF92FF920F931F936B0111
:100EA0007C0120E030E040E05FE40E94B60A87FD6C
:100EB0000EC020E030E040E05FE4C701B6010E94D0
:100EC000FE080E94E50A8B019C01305806C0C7014C
:100ED000B6010E94E50A8B019C01B801C9011F916E
:100EE0000F91FF90EF90DF90CF900895A4E0B0E0D5
:100EF000ECE7F7E00C948D0D7C016A01FC01808128
:100F0000823008F44AC1FB019081923008F442C15A
:100F1000843079F4943009F040C1F7019181FB01EC
:100F20008181981709F439C1A9E6EA2EA0E0FA2ECA
:100F300034C1943009F42EC1923091F4823009F01A
:100F40002CC188E0F701DA0101900D928A95E1F752
:100F5000FB018181F70191818923FA0181831CC101
:100F6000823009F417C1F70182819381FB01A281CC
:100F7000B381F7010481158126813781FB018480CB
:100F80009580A680B780FC01EA1BFB0BAF01F7FF41
:100F900004C0442755274E1B5F0B403251050CF00F
:100FA00074C01E161F06B4F524013501042E04C0BA
:100FB00076946794579447940A94D2F749825A8258
:100FC0006B827C82412C512C3201439404C0440C2E
:100FD000551C661C771C4A95D2F741E0441A51080B
:100FE00061087108482059206A207B20812C912CAF
:100FF0005401839445284628472819F4812C912CC4
:10100000540149805A806B807C8084289528A628CA
:10101000B72846C0EF2B09F443C0840F951F280161
:101020003901042E04C076946794579447940A9427
:10103000D2F749825A826B827C82412C512C320138
:10104000439404C0440C551C661C771C4A95D2F787
:1010500041E0441A5108610871084022512262227D
:10106000732201E010E020E030E0452846284728C0
:1010700019F400E010E0980149805A806B807C8070
:1010800004291529262937290BC0A817B90724F4E4
:10109000812C912C540104C0CD0100E010E0980196
:1010A000F7014181FB015181451709F446C04423F2
:1010B00049F024013501401A510A620A730A93016A
:1010C000820104C0081919092A093B0937FD05C026
:1010D000F6011182938382830CC041E0F6014183C3
:1010E0009383828330952095109501951F4F2F4F44
:1010F0003F4F04831583268337830EC0880F991FC3
:10110000AA1FBB1FF60184839583A683B7838281C0
:101110009381019793838283F60184819581A681CF
:10112000B781AC01BD0141505109610971094F3FBF
:101130005F4F6F4F7F4310F30CC0F60141839383E1
:101140008283080D191D2A1D3B1D048315832683E8
:10115000378383E0F60180834481558166817781FE
:1011600077FF1AC0DB01CA0181709927AA27BB2724
:101170007695679557954795842B952BA62BB72B7E
:1011800084839583A683B783828193810196938319
:10119000828302C07B0101C07601C7012496E0E191
:1011A0000C94A90DA0E2B0E0E8EDF8E00C949B0DE2
:1011B0006D8F7E8F8F8F98A3298F3A8F4B8F5C8F87
:1011C000BE016F5E7F4FCE014D960E94740CBE0132
:1011D000675F7F4FCE0149960E94740CAE014F5F4E
:1011E0005F4FBE01675F7F4FCE0141960E94760739
:1011F0000E94AA0BA096E2E00C94B70DA0E2B0E02A
:10120000E4E0F9E00C949B0D6D8F7E8F8F8F98A397
:10121000298F3A8F4B8F5C8FBE016F5E7F4FCE015F
:101220004D960E94740CBE01675F7F4FCE014996B8
:101230000E94740C8A8591E089278A87AE014F5FEE
:101240005F4FBE01675F7F4FCE0141960E947607D8
:101250000E94AA0BA096E2E00C94B70DA0E2B0E0C9
:10126000E4E3F9E00C948D0D6D8F7E8F8F8F98A342
:10127000298F3A8F4B8F5C8FBE016F5E7F4FCE01FF
:101280004D960E94740CBE01675F7F4FCE01499658
:101290000E94740C9989923008F412C089858230BA
:1012A00008F41AC0943021F4823009F4B4C008C0A4
:1012B000843021F4923009F4AEC00EC0923051F463
:1012C00081E02A899A85291301C080E08A8BCE01AA
:1012D0004196A3C0823051F481E02A899A8529136E
:1012E00001C080E08A87CE01099697C08D889E88CC
:1012F000AF88B88C0D851E852F853889E0E2F0E037
:1013000080E090E0DC01C12CD12C760140E050E07F
:10131000BA0180FE18C0400F511F621F731F8C0D51
:101320009D1DAE1DBF1D412C512C32014394401711
:1013300051076207730718F0412C512C3201840DBC
:10134000951DA61DB71DCC0CDD1CEE1CFF1C37FF28
:1013500002C06894C0F8000F111F221F331FB694FB
:10136000A794979487943197A1F62B893C89EB85B4
:10137000FC852E0F3F1F2E5F3F4F3C832B8321E0C8
:10138000EA893A85E31301C020E02A83EB81FC81DE
:101390000CC080FF05C07695679557954795706896
:1013A000B695A795979587953196B7FDF2CF9F0192
:1013B0000CC0880F991FAA1FBB1F77FD8160440FC7
:1013C000551F661F771F215031090097A105E0E4E2
:1013D000BE0778F32B833C838C019D010F77112787
:1013E00022273327003411052105310559F487FDE3
:1013F00009C0452B462B472B29F0805C9F4FAF4FF0
:10140000BF4F80788D839E83AF83B88783E08983C5
:10141000CE01019602C089E690E00E94AA0BA09638
:10142000E0E10C94A90DA8E1B0E0E9E1FAE00C9448
:10143000950D6D8B7E8B8F8B988F298B3A8B4B8B79
:101440005C8BBE01675F7F4FCE0145960E94740C96
:10145000BE016F5F7F4FCE0141960E94740C99854B
:10146000923008F475C08981823008F474C02A85EE
:101470003A8123272A87943011F0923019F4981377
:1014800067C06CC0843039F41D861E861F86188A9A
:101490001C861B8604C0823029F484E08987CE0133
:1014A00009965EC08B859C852B813C81821B930BAA
:1014B0009C878B874D855E856F857889CD80DE80A2
:1014C000EF80F8844C155D056E057F0538F4440FF8
:1014D000551F661F771F01979C878B87EFE1F0E010
:1014E00000E010E020E030E480E090E0DC014C150A
:1014F0005D056E057F0540F0802B912BA22BB32B51
:101500004C195D096E097F09369527951795079542
:10151000440F551F661F771F319749F78C019D01B6
:101520000F771127222733270034110521053105B4
:1015300059F487FD09C0452B462B472B29F0805CC9
:101540009F4FAF4FBF4F80788D879E87AF87B88BF7
:10155000CE01099605C0CE01019602C089E690E051
:101560000E94AA0B6896E8E00C94B10DA8E1B0E0E7
:10157000ECEBFAE00C949B0D6D8B7E8B8F8B988F30
:10158000298B3A8B4B8B5C8BBE01675F7F4FCE0103
:1015900045960E94740CBE016F5F7F4FCE0141964D
:1015A0000E94740C8985823058F08981823040F025
:1015B000BE016F5F7F4FCE0109960E94E30C01C010
:1015C0008FEF6896E2E00C94B70DACE0B0E0EBEE84
:1015D000FAE00C94990D69877A878B879C87BE0106
:1015E0006F5F7F4FCE0109960E94740C8981823013
:1015F00091F1823080F1843041F48A81882331F185
:1016000000E010E020E030E829C02B813C8137FD6C
:1016100022C02F3131058CF78EE190E0821B930BB5
:101620000D811E812F81388504C036952795179529
:1016300007958A95D2F78A81882381F03095209585
:10164000109501951F4F2F4F3F4F08C00FEF1FEF11
:101650002FEF3FE703C000E010E09801B801C90197
:101660002C96E4E00C94B50DA8E0B0E0EAE3FBE0D2
:101670000C94950D8B019C011A82611571058105F1
:10168000910519F482E089835DC083E089834EE18E
:1016900050E05C834B83C901B8010E94C20D0197E1
:1016A00097FF39C0EE27FF27E81BF90B41E050E018
:1016B00060E070E00E2E04C0440F551F661F771FB8
:1016C0000A94D2F74150510961097109402351230D
:1016D00062237323C12CD12C7601C394452B462B56
:1016E000472B19F4C12CD12C760104C036952795CF
:1016F00017950795EA95D2F70C291D292E293F2920
:101700000D831E832F8338872EE130E0281B390B91
:101710003C832B8317C0009729F40D831E832F83EE
:10172000388710C0082E04C0000F111F221F331F5E
:101730000A94D2F70D831E832F833887481B590BD9
:101740005C834B83CE0101960E94AA0B2896E8E0A9
:101750000C94B10D0F931F93CF93DF93DC0114967C
:101760004D915D916D917C9117971196EC91119728
:101770008C91823020F460618FEF90E0A6C08430BD
:1017800009F49EC0823009F495C0411551056105E8
:10179000710509F492C012962D913C91139722384D
:1017A0008FEF38070CF058C0C2E8DFEFC21BD30B35
:1017B000CA31D1056CF58A019B010C2E04C0369507
:1017C0002795179507950A94D2F781E090E0A0E05D
:1017D000B0E00C2E04C0880F991FAA1FBB1F0A94EB
:1017E000D2F70197A109B10984239523A623B72332
:1017F00041E050E060E070E0892B8A2B8B2B19F4DC
:1018000040E050E0BA01402B512B622B732B03C0F8
:1018100040E050E0BA01DB01CA018F779927AA277F
:10182000BB2780349105A105B10539F447FF09C0F4
:10183000405C5F4F6F4F7F4F04C0415C5F4F6F4F05
:101840007F4F81E090E041155105610520E472076A
:1018500048F580E090E026C0203831058CF5DB01AA
:10186000CA018F779927AA27BB2780349105A10544
:10187000B10539F447FF09C0405C5F4F6F4F7F4FA0
:1018800004C0415C5F4F6F4F7F4F77FD04C0C901BB
:1018900081589F4F07C07695679557954795C90121
:1018A00080589F4F97E076956795579547959A95FD
:1018B000D1F70BC080E090E005C080E090E005C06B
:1018C0008FEF90E040E050E0BA01982F9695E0FB52
:1018D00097F9362F80FB37F9642F752F832FDF910F
:1018E000CF911F910F910895CF92DF92EF92DC017B
:1018F000FB01CC901196DC90119712968C91129767
:101900003FE7E32EE8226E2DA60170E0982F991F85
:101910009927991F13962C91822F880F892B90E07D
:1019200027FB222720F92183009729F5411551052E
:101930006105710511F482E027C082E89FEF93836F
:10194000828327E0440F551F661F771F2A95D1F722
:1019500083E0808309C0440F551F661F771F828173
:10196000938101979383828341155105610580E43A
:10197000780788F320C08F3F910579F44115510510
:101980006105710519F484E0808319C0E4FE03C089
:1019900081E0808310C010820EC08F57910993831D
:1019A000828383E0808387E0440F551F661F771F83
:1019B0008A95D1F770644483558366837783EF906B
:1019C000DF90CF900895CF93FC01DB01908192309E
:1019D00008F452C08C91823008F44EC0943071F4F7
:1019E000843039F411962C9130E08181281B310923
:1019F00048C08181882309F43FC03BC0843029F46A
:101A000011968C91811138C034C0923019F4823013
:101A1000B9F735C0823069F3C18111968C91119765
:101A2000C8131DC02281338112968D919C9113970A
:101A3000821793070CF413C0281739070CF417C04A
:101A4000448155816681778114968D919D910D9089
:101A5000BC91A02D84179507A607B70718F4C111EC
:101A600008C00AC0481759076A077B0740F4C1112C
:101A700003C02FEF3FEF05C021E030E002C020E0BF
:101A800030E0C901CF9108950E94EE020E9429061C
:101A90000E949A0081E00E94E70182E00E94E70133
:101AA0000E94880178942FEF8FE795E221508040C3
:101AB0009040E1F700C0000081E790E00E94180626
:101AC0000E944E01FDCFAA1BBB1B51E107C0AA1FFC
:101AD000BB1FA617B70710F0A61BB70B881F991FCF
:101AE0005A95A9F780959095BC01CD01089597FB73
:101AF000072E16F4009407D077FD09D00E94630DDD
:101B000007FC05D03EF4909581959F4F0895709500
:101B100061957F4F08952F923F924F925F926F92FF
:101B20007F928F929F92AF92BF92CF92DF92EF926D
:101B3000FF920F931F93CF93DF93CDB7DEB7CA1BEE
:101B4000DB0B0FB6F894DEBF0FBECDBF09942A8819
:101B5000398848885F846E847D848C849B84AA84C1
:101B6000B984C884DF80EE80FD800C811B81AA814E
:101B7000B981CE0FD11D0FB6F894DEBF0FBECDBF19
:101B8000ED0108950E94CB0D84FF0895CB010E94C2
:101B9000CB0D805F0895AA27992329F4A85F982B7D
:101BA00011F480E10895903118F4AD5F9295A395FA
:101BB000990FE8F78A2F99270895FB01DC018D9191
:101BC000019080190110D9F3990B0895F894FFCF73
:101BD0000608075F015701650100000000000000D2
:101BE00000726561647900666F756E64206163746C
:101BF00069766500666F756E6420656D7074790036
:101C0000506572666F726D696E67206368697020D7
:101C100065726173650043757272656E74205074ED
:101C200072733A00436F6D6D616E642E2E00707298
:101C3000696E7430007072696E7431007072696E12
:101C40007432007072696E7433007072696E74342D
:101C5000007072696E7435007072696E743600704F
:101C600072696E743700636C6561723000636C6515
:101C700061723100636C6561723200636C65617220
:101C80003300636C6561723400636C6561723500AA
:0E1C9000636C6561723600636C6561723700CB
:00000001FF
