:100000000C942A000C9447000C94B6040C944700FE
:100010000C9447000C9431050C9447000C94470055
:100020000C9447000C9496050C9447000C944700E0
:100030000C9447000C9447060C9447000C9447001E
:100040000C9447000C9447000C9447000C94470014
:100050000C94470011241FBECFE5D8E0DEBFCDBF12
:1000600011E0A0E6B0E0ECE7FFE002C005900D92E1
:10007000A831B107D9F711E0A8E1B1E001C01D92A4
:10008000AC34B107E1F70E9458070C94BC070C94FC
:100090000000CF93C82F80E463E00E944202C4BBFB
:1000A000C095C5BBCF91089514BA8FEF85BB80E092
:1000B00063E00E94420214BA089514BA8FEF85BB20
:1000C000089595B3907F95BB25B3982F92959F7017
:1000D000922B95BBAC9A9E9BFECFAC98613009F4F5
:1000E000AD9895B3907F95BB95B38F70892B85BBE9
:1000F000AC9A9E9BFECFAC9808959E9BFECF93B387
:100100009295907FAC9A9E99FECFAC989E9BFECF25
:1001100083B38F70892BAC9A9E99FECFAC980895CB
:10012000CF92DF92EF92FF920F931F93CF93DF93C3
:10013000D82EAD9A9F9BFECFC0E0D0E0CC2480E3C8
:10014000E82E81E0F82E0D2D10E0015010400CC07B
:10015000C017D10711F4CC24C394F70181917F011A
:100160006C2D0E9461002196CD1590F39F99FECFD2
:10017000DF91CF911F910F91FF90EF90DF90CF9083
:100180000895FF920F931F93CF93DF938C019F9B52
:10019000FECFAD9AFF24C6E2D1E00E947D00899394
:1001A000F3949F9B03C08AE0F816B9F7AD98F80165
:1001B000F082DF91CF911F910F91FF900895CF931F
:1001C000DF93EC0180E30E944900CE010E94C10050
:1001D0000E945400DF91CF910895CF93C82F8FE3F1
:1001E0000E9449008C2F0E9490000E945400CF91E1
:1001F000089580913B010E94360680913C010E9447
:10020000360680913D010E94360680913E010E9493
:10021000360680913F010E943606809140010E947F
:1002200036060895CF93DF93CDB7DEB762970FB64A
:10023000F894DEBF0FBECDBF81E00E940B0220917B
:100240003B012A8720913C012B8720913D012C877F
:1002500020913E012D8720913F012E872091400162
:100260002F8721E0288B998B8A8BCE010A9669E033
:100270000E94660382E00E940B0220913B012983C9
:1002800020913C012A8320913D012B8320913E0146
:100290002C8320913F012D83209140012E8322E069
:1002A0002F8398878987CE01019669E00E946603B3
:1002B00062960FB6F894DEBF0FBECDBFDF91CF912F
:1002C0000895CF93DF93CDB7DEB728970FB6F89494
:1002D000DEBF0FBECDBF80E00E94D00190913B01F8
:1002E000998390913C019A8390913D019B839091D9
:1002F0003E019C8390913F019D83909140019E839C
:1003000093E09F838887CE01019668E00E94660390
:1003100028960FB6F894DEBF0FBECDBFDF91CF9108
:100320000895809140018823D9F080913C0165E0D7
:100330000E948007992391F480913B018A3071F4E7
:1003400080913A01813061F081E080933A010E940E
:10035000F9000E9412010E946101089510923A0171
:10036000089598E044E13DE3C79880FF02C0C69A33
:1003700001C0C698242F2A95F1F7C79A232F2A95F2
:10038000F1F78695915081F7089580E487B983E06D
:1003900086B9379A369A3699FECF84B195B10895C9
:1003A00097B18F71907E892B87B9369A3699FECF97
:1003B00084B195B10895BF9ABE9AC798C69863E074
:1003C0000E94420284E18A95F1F78CE00E94B1011B
:1003D0008AE00E94B10180E063E00E94420280E076
:1003E00094EB0197F1F70895CF93BF9ABE9AC798FF
:1003F000C69863E00E944202C4E18C2F8A95F1F70F
:100400008EEE0E94B101CA95F1F780E063E00E9490
:100410004202CF910895CF93DF93BF9ABE9AC798B7
:10042000C69863E00E944202C4E18C2F8A95F1F7DE
:100430008AEA0E94B101BE98C69ACA95F1F729E0EE
:1004400081E090E0C0E0D0E03AE054E1C798432F6B
:100450004A95F1F766B3432F4A95F1F766FF02C05C
:10046000C82BD92BC79A452F4A95F1F7880F991FAA
:10047000215061F780E063E00E944202CE01DF91EB
:10048000CF9108959FEF94BB60FF02C0949A01C082
:100490009498669560FF02C0959A01C095986695FC
:1004A00060FF02C0979A01C0979885BBC49884E109
:1004B0008A95F1F7C49A08951F93CF93DF930F9213
:1004C000CDB7DEB7182F862F60E079830E944202F5
:1004D0007981872F61E00E944202812F62E00E94B1
:1004E000420215BA14BAC29882E08A95F1F713B3A2
:1004F000C29A80E060E00E94420280E061E00E94D7
:10050000420280E062E00E944202812F0F90DF9160
:10051000CF911F9108951F93CF93DF9300D0CDB754
:10052000DEB7162F9FEF94BB60E02A8349830E94B9
:100530004202812F61E00E9442024981842F62E0E1
:100540000E944202C3982A8125BBC39A80E060E0E2
:100550000E94420280E061E00E94420280E062E08C
:100560000E9442020F900F90DF91CF911F9108954A
:10057000FF920F931F93CF93DF930F92CDB7DEB708
:10058000082FF62E142F85E565E040E02AEA7983EE
:100590000E948B028AEA62E040E025E50E948B021D
:1005A00085E565E040E020EA0E948B028F2D79818D
:1005B000672F402F212F0E948B020F90DF91CF9148
:1005C0001F910F91FF90089580E061E00E94420228
:1005D00080E062E00E94420280E063E00E9442020A
:1005E00080E064E00E94420208958C9A8D9A8F9A6E
:1005F000BC9AC49A80E061E00E94420280E062E01E
:100600000E94420280E063E00E94420280E064E0D7
:100610000E944202089585E565E040E02AEA0E94D2
:100620008B028AEA62E040E025E50E948B0285E5C4
:1006300065E040E020E80E948B0285E565E040E04F
:100640002AEA0E948B028AEA62E040E025E50E94E5
:100650008B0285E565E040E020E10E948B0214BA40
:1006600083B38F3FE9F780E060E070E04FE00E94E5
:10067000B8020895CF93C82F85E565E040E02AEAE7
:100680000E948B028AEA62E040E025E50E948B022C
:1006900085E565E040E020E80E948B0285E565E0A5
:1006A00040E02AEA0E948B028AEA62E040E025E507
:1006B0000E948B0280E060E04C2F20E30E948B02BE
:1006C00014BA83B38F3FE9F7CF910895CF92DF92A9
:1006D000EF92FF920F931F93CF93DF93D82EC92EE3
:1006E000F62E662309F458C02091180130911901A3
:1006F00020953095862F90E002962817390728F527
:10070000C0911A018C2F60E070E040E00E94B802B6
:10071000D0E02196C770D0700C2F8C2FC0931A0197
:1007200060E070E00E945C028F3F19F08C2F0E9405
:100730003A03802F60E070E04FE00E94B80281E051
:1007400090E09093190180931801E0901A01C091F4
:100750001801D09119018E2DBE014F2D0E94B802B3
:100760002196D0931901C09318010D2D1C2D10C096
:10077000C0911801D09119018E2DBE01F80141914F
:100780008F010E94B8022196D0931901C0931801DD
:10079000802F8D198F1560F3DF91CF911F910F91ED
:1007A000FF90EF90DF90CF900895EF92FF920F931C
:1007B0001F93CF93DF93F82EC1E0D0E013C08F2DAD
:1007C000BE010E945C02E82E8E010F5F1F4F8F2D2D
:1007D000B8010E945C020E943606802F8C1BE8162E
:1007E000A0F7E8018F2DBE010E945C028F3F39F710
:1007F000DF91CF911F910F91FF90EF9008951F937C
:10080000CF93DF93BB9ABA9AC29AC39A10E0812F12
:1008100060E070E00E945C028F3029F01F5F1830AA
:10082000B1F7C0E01EC080E690E00E942906109358
:100830001A01C1E0D0E00AC0812FBE010E945C0213
:10084000282F30E02F5F3F4FC20FD31F812FBE01F3
:100850000E945C028F3F81F7D0931901C093180169
:100860001EC08C2F60E070E00E945C028F3F21F080
:10087000CF5FC830B1F727C0C0931A018DE690E072
:100880000E94290680911A0160E070E04FE00E940A
:10089000B80281E090E0909319018093180189E7F4
:1008A00090E00E94290680911A010E9436068091EC
:1008B00019010E943606809118010E943606DF91C8
:1008C000CF911F91089587E890E00E9429060E9429
:1008D0000B0310921A0180E0D7CF109221011092E1
:1008E00022011092230110922401109225011092EE
:1008F0001D0110921E0110921F0110921C011092F6
:100900001B0108950E946D0410923B0110923C015E
:1009100010923D0110923E0110923F011092400151
:1009200085B5877F85BD85B58F7B85BD14BC85B5B5
:10093000846085BD85B5826085BD85B58E7F85BDAA
:1009400089B7806489BF85B7846085BF8B988BB772
:1009500080688BBF80E492EA9DBD8CBD89B78460BE
:1009600089BF8EB584608EBD789408951F920F92D2
:100970000FB60F9211248F939F9380911B011092B9
:100980001B01839967C08F3010F480E001C080E8BC
:1009900090911C01953108F458C090911C019C3134
:1009A00038F4909121019695980F9093210104C0FD
:1009B00090911C019C3131F490911D01980F9093FE
:1009C0001D0143C090911C01933238F49091220193
:1009D0009695980F9093220104C090911C01933238
:1009E00031F490911E01980F90931E012EC09091AA
:1009F0001C019A3238F4909123019695980F9093A8
:100A000023011EC090911C019D32D0F090911C01D9
:100A1000923338F4909124019695980F9093240185
:100A20000FC090911C019A3338F49091250196954E
:100A3000980F9093250104C090911C019A3329F4DA
:100A400090911F01980F90931F0180911C018F5F5F
:100A500080931C019F918F910F900FBE0F901F905C
:100A600018951F920F920FB60F9211242F933F9358
:100A70004F935F936F937F938F939F93AF93BF93A6
:100A8000EF93FF9380911B018E35D1F580911C016E
:100A90008B33A1F580911D01882381F580911E0182
:100AA000882361F580911F01882341F58091210100
:100AB00086950E944D0780933C0180912201869586
:100AC00086950E944D0780933D0180912301869574
:100AD00086950E944D0780933E0180912401869562
:100AE000869586950E944D0780933F018091250150
:100AF0000E944D078093400110923B010E946D04BB
:100B000080911B018F5F80931B01FF91EF91BF913B
:100B1000AF919F918F917F916F915F914F913F9195
:100B20002F910F900FBE0F901F9018951F920F924C
:100B30000FB60F9211242F933F935F936F937F9380
:100B40008F939F93AF93BF93EF93FF9380E492EAC9
:100B50009DBD8CBD80913B018F5F80933B01809157
:100B60003B018C3309F065C010923B0180913C0140
:100B70008F5F80933C0180913C018C3309F059C018
:100B800010923C0180913D018F5F80933D018091E7
:100B90003D01883109F04DC010923D0180913E0128
:100BA0008F5F80933E01E0913E01F0E080913F0134
:100BB000209140018230B9F430E02053384FC90110
:100BC00060E971E00E948C070097C1F0C90164E6FA
:100BD00070E00E948C07009779F023703070211527
:100BE000310561F009C0843059F0863049F0893010
:100BF00039F08B3039F404C08DE105C08CE103C0BD
:100C00008EE101C08FE190E00196E817F90789F4C1
:100C100080913F018F5F80933F0180913F018D3034
:100C200041F481E080933F01809140018F5F809388
:100C30004001FF91EF91BF91AF919F918F917F9173
:100C40006F915F913F912F910F900FBE0F901F906A
:100C50001895FC0103C05D9BFECF8CB98191882360
:100C6000D1F75D9BFECF8AE08CB908955D9BFECFE6
:100C70008CB908958AB188698AB980B5866880BDC3
:100C800010BC87E289B910924101789408951F92AF
:100C90000F920FB60F9211242F933F934F935F93B0
:100CA0006F937F938F939F93AF93BF93EF93FF9334
:100CB000CF93DF93CDB7DEB72A97DEBFCDBF8CB120
:100CC0008A3089F0E0914101F0E0EE5BFE4F8083D5
:100CD0008091410190E001966AE070E00E94A007D7
:100CE00080934101C4C08DE990E00E942906FE0175
:100CF000319680E090E0DC01AE5BBE4F2C912193F9
:100D00001C9201968A309105B1F7CE01019667EAEF
:100D100070E00E94B307009719F480E00E94D503A9
:100D2000CE0101966EEA70E00E94B307009719F4B5
:100D300081E00E94D503CE01019665EB70E00E9430
:100D4000B307009719F482E00E94D503CE01019603
:100D50006CEB70E00E94B307009719F483E00E94E7
:100D6000D503CE01019663EC70E00E94B3070097B3
:100D700019F484E00E94D503CE0101966AEC70E07C
:100D80000E94B307009719F485E00E94D503CE01B5
:100D9000019661ED70E00E94B307009719F486E0B8
:100DA0000E94D503CE01019668ED70E00E94B30762
:100DB000009719F487E00E94D503CE0101966FEDEC
:100DC00070E00E94B307009719F480E00E943A0394
:100DD000CE01019666EE70E00E94B307009719F409
:100DE00081E00E943A03CE0101966DEE70E00E9410
:100DF000B307009719F482E00E943A03CE010196EE
:100E000064EF70E00E94B307009719F483E00E943A
:100E10003A03CE0101966BEF70E00E94B307009792
:100E200019F484E00E943A03CE01019662E071E079
:100E30000E94B307009719F485E00E943A03CE019F
:100E4000019669E071E00E94B307009719F486E00B
:100E50000E943A03CE01019660E171E00E94B3075F
:100E6000009719F487E00E943A03109241012A96F4
:100E7000DEBFCDBFDF91CF91FF91EF91BF91AF91D9
:100E80009F918F917F916F915F914F913F912F91A2
:100E90000F900FBE0F901F901895282F22952F703E
:100EA000922F990F990F920F990F8F70890F0895B4
:100EB0000E94F5020E945D0080E29EE429E930E094
:100EC000F9013197F1F70197D9F7C9E9D0E0EE249C
:100ED000E39482E0F82E03E014E080E197E2FE0163
:100EE0003197F1F70197D9F7E0923001F092310193
:100EF000009332011093330184E00E94ED00EDCFA6
:100F0000991B79E004C0991F961708F0961B881F5B
:100F10007A95C9F780950895AA1BBB1B51E107C0BC
:100F2000AA1FBB1FA617B70710F0A61BB70B881F79
:100F3000991F5A95A9F780959095BC01CD01089508
:100F400097FB092E07260AD077FD04D0E5DF06D0EF
:100F500000201AF4709561957F4F0895F6F79095EB
:100F600081959F4F0895FB01DC018D9101908019BF
:0C0F70000110D9F3990B0895F894FFCFFD
:100F7C00666F756E642061637469766500666F7563
:100F8C006E6420656D7074790043757272656E7451
:100F9C0020507472733A00506572666F726D696E90
:100FAC0067206368697020657261736500436F6DBB
:100FBC006D616E642E2E007072696E7430007072EA
:100FCC00696E7431007072696E7432007072696E81
:100FDC007433007072696E7434007072696E74359B
:100FEC00007072696E7436007072696E74370063CB
:100FFC006C6561723000636C6561723100636C65A5
:10100C0061723200636C6561723300636C6561728E
:10101C003400636C6561723500636C656172360017
:08102C00636C6561723700007E
:00000001FF
